:020000040000FA
:020000000528D1
:040002000034003492
:06000A00831603139B01A5
:1000100083120313073092003F30970000309500A1
:10002000831603133E3092008316031300308500BD
:10003000F03086008312031386018501B120CA20A7
:100040000608F039A4002408A600EF30850526082C
:1000500010398504A60CA60CA60CA60C0E30A6051D
:10006000F130860526088604103003112406031D8E
:100070003F28153095003E309200C22020282030C5
:1000800003112406031D4A28153095003E309200C6
:10009000B8202028403003112406031D55281530B0
:1000A00095003E309200B8202028803003112406AD
:1000B000031D6028153095003E309200B82020289E
:1000C000D03003112406031D6B28153095003E30F7
:1000D0009200C220202803112408A700DF30A705C2
:1000E00050302706031D7C28153095003E309200C5
:1000F0000430A800B820202803112408A700DF300E
:10010000A70590302706031D8D28153095003E3039
:1001100092000230A800BD202028F03003112406F0
:10012000031D9428C7202028003003112406031D36
:100130002028023003112806031DA4283E30950014
:100140003E309200BD20AE28043003112806031D66
:1001500020283E3095003E309200B8200030A800A4
:100160002028153095003E309200F03085050800BB
:10017000051085140515851508000514851405114D
:1001800085150800051085140511851508000F3028
:0A0190008504080001309004080007
:02400E00293F48
:02401000FC3F73
:00000001FF
