:020000040000FA
:020000000528D1
:040002000034003492
:020008002C29A1
:06000A00831603131830F9
:10001000850001308600831603139B0183120313AE
:100020008601850160308100B0308B00FF30810097
:10003000A701A301A401A501A601AD01B0011721EB
:10004000B01CAE28301D25284C28013003112D0688
:10005000031D302817210E30B1000130AF004528B4
:10006000023003112D06031D3B2817212030B1005B
:100070000E30AF004528033003112D06031DAE28B6
:1000800017213830B1002030AF00A301A401A50131
:10009000A6012F08A30030158A100A14E03086004C
:1000A000230871211F212308AA211F2186118615EB
:1000B0000A30A000FF30A100A10B5C28A00B5B2838
:1000C000D0308600240871211F212408AA211F2175
:1000D000861186150A30A000FF30A100A10B6E2802
:1000E000A00B6D28B0308600250871211F2125083E
:1000F000AA211F21861186150A30A000FF30A10019
:10010000A10B8028A00B7F28703086002608712163
:100110001F212608AA211F21861186150A30A0005A
:10012000FF30A100A10B9228A00B91288A100A1081
:10013000A70A0A3003112706031D2028A701250856
:10014000A6002408A5002308A400A30A310803116F
:100150002306031D20282F08A300202801300311A7
:100160002E06031DB6280330B200C5280230031145
:100170002E06031DBE280430B200C528033003112B
:100180002E06031D12290530B2008A100A14E03031
:100190008600320863211F2132086A211F2186113F
:1001A00086150A30A000FF30A100A10BD528A00BB6
:1001B000D428D0308600023063211F2102306A210A
:1001C0001F21861186150A30A000FF30A100A10B67
:1001D000E728A00BE628B0308600013063211F21FC
:1001E00001306A211F21861186150A30A000FF30D8
:1001F000A100A10BF928A00BF82870308600003070
:1002000063211F2100306A211F21861186150A30C3
:10021000A000FF30A100A10B0B29A00B0A298A1016
:100220000A1013291721301C2028B0142028003070
:10023000860000301F2100301F2186118615AA007C
:100240000830AB00AA1F262906152729061186109B
:100250008614AA0DAB0B22298B13AC008B1C3529FD
:100260008B10301130142E08AD000B1D44290B11DA
:10027000B0103010AE0A043003112E06031D4229BF
:100280000130AE00FF3081002C088B1709000034CC
:1002900000340034003400340034003400340034BE
:1002A00000340034003400340034003400340034AE
:1002B000003400340034003400340034003400349E
:1002C0000034003400348207013422340434003412
:1002D00022342234820776343934763406341B349F
:1002E0000F348207003400340034083422340034E0
:1002F0000134003426342234043400340034003411
:1003000000342234223400340034223400342234C5
:1003100000340834263400340434083400342234E1
:1003200000340034223400342234003408342634BB
:1003300000340434083400342234003408340834DF
:1003400002340834083422340034003408340834C9
:10035000003400348207003438343E3489342D347C
:10036000083476343F343334393476343F3400340F
:1003700000343E34333437343F340834393438347D
:1003800039343934813433343F3476348934393430
:100390003734003400343934383439343934813422
:1003A00033343F34763489343934373408348F3435
:1003B00089343D34893481343734383408348934CD
:0803C0008934003400340034DC
:02400E00293F48
:02401000FC3F73
:00000001FF
