:020000040000FA
:020000000528D1
:040002000034003492
:0200080034289A
:06000A003D308100831669
:100010000030850001308600B0308B000730810051
:100020000317880189010313831200308500003013
:1000300086000330C2000530C0004130C100C10B52
:100040001F28C00B1E28C20B1D2886140330C200B7
:100050000530C0004130C100C10B2C28C00B2B283B
:10006000C20B2A2886101928A1000308A2000B1D24
:100070003D283A283D30810045288B1C4528061D27
:10008000422844280615452806118B100B1122081A
:06009000830021080900B5
:02400E00F1209F
:02401000FF3F70
:00000001FF
