:020000040000FA
:020000000428D2
:040002000034003492
:08000800831603131830850074
:10001000F8308600831603139B01831203138601B5
:100020008501E501A50106083839E5000310E50C56
:10003000E50CE50C6508E70006088039E500E50EEB
:100040006508E7060830A500A503250886000130ED
:10005000A000FF30A100A10B2B28A00B2A28061F0F
:100060003328681434286810003003112506031D56
:100070003A283C28E80D24286808C1006708C00019
:100080004108E5004008E40003300310E402031CCB
:100090005728E8300310E502031C5028E30A4428DF
:1000A00001300310E402031C5728E30A44280030FF
:1000B00003116306031961280330E4076508C100D2
:1000C00065284008E4004108E50064300310E502BB
:1000D000031C6C28E20A652801300310E402031CAB
:1000E0007328E20A652800300311620603197B2891
:1000F0006430E5077D284108E5000A300310E50279
:10010000031C8428E10A7D280030031161060319CD
:100110008C280A30E5078E284108E5006508E000D4
:100120006008C2006108C3006208C4006308C5001B
:10013000E001E101E201E301E401E501031005084A
:100140001839E500E50CE50CE50C003003116506F7
:10015000031DAC284208BB28013003116506031DAE
:10016000B3284308BB28023003116506031DBA28D3
:100170004408BB2845088A100A140A218A100A106C
:10018000C2201128A3000830A400A31FC928051409
:10019000CA28051085108514A30DA40BC5280511C8
:1001A00005150800820700340034003400340034A0
:1001B000003400340034003400340034003400349F
:1001C000003400340034003400340034003400348F
:1001D000003400340034003400340034003400347F
:1001E000003400340034003400340034003400346F
:1001F000003400340034003400340034003400345F
:10020000003400340034003400340034003400344E
:100210000034003482073F3406345B344F34663494
:0A0220006D347D3407347F346734F9
:02400E00293F48
:02401000FC3F73
:00000001FF
