:020000040000FA
:020000000528D1
:040002000034003492
:06000A00831603138501BB
:100010008701860183160317880189018312031360
:10002000870186018501A901A501A601A701A801F3
:10003000E030860025088320752025089D20752046
:10004000071107151030A000FF30A100A10B2628D2
:10005000A00B2528D030860026088320752026088E
:100060009D207520071107151030A000FF30A1005A
:10007000A10B3828A00B3728B03086002708832032
:10008000752027089D207520071107151030A00046
:10009000FF30A100A10B4A28A00B49287030860030
:1000A00028088320752028089D2075200711071532
:1000B0001030A000FF30A100A10B5C28A00B5B2832
:1000C000A90A053003112906031D1828A9012708CC
:1000D000A8002608A7002508A600A50A09300311D4
:1000E0002506031D1828A5011828A3000830A40020
:1000F000A31F7C2887147D28871007100714A30DE1
:10010000A40B78280800820700340034003422341D
:100110000034083408340034003408342234003405
:1001200000340034223422340834083400340034DB
:100130000034003400340034003482070034393491
:10014000383437343E348F3489343F3400348F347C
:10015000393438340034393437342D3481348934E7
:10016000383438343F340034003400340034A000D4
:0E017000FF30A100A10BBA28A00BB92808008F
:02400E00F1209F
:02401000FF3F70
:00000001FF
