:020000040000FA
:020000000528D1
:040002000034003492
:0200080053287B
:06000A00831603139B01A5
:1000100083160313850186010301043886008316C5
:1000200003131930990083160313A4309800831228
:100030000313903098008312031385018601A001F9
:100040000514061403100530A8000630A80222305B
:100050008400AA308000840A841D2928223084006C
:1000600020084420990083160313981C3528831216
:1000700003130E302006031D3F28A0014028A00ACC
:100080000130860685062728820749346E34743489
:10009000653472346D3469346E34613462346C3476
:0800A00065340D340A34090037
:02400E00E93F88
:00000001FF
