:020000040000FA
:020000000528D1
:080008002328831603139B015A
:100010000030850001308600011381128111011426
:1000200081100115831200308500003086008B1787
:100030000B168B160B118B103D30810005108510AF
:1000400006110000212821088300A2000B1D36287C
:10005000051C2B2833280514851C2F2831288514CE
:1000600034288510342805103D3081008B1C3E2833
:10007000061D3B283D2806153E2806118B100B1146
:08008000220883002108090099
:02400E00093F68
:02401000FC3F73
:00000001FF
