:020000040000FA
:020000001628C0
:040002000034003492
:020008006F285F
:06000A0082073F340634BA
:100010005B344F3466346D347D3407347F34673459
:100020000034820701340234043408348316F0307B
:10003000860085019B01811383120B108B178B1592
:10004000A101A601B2010F3085000A30A700A80067
:10005000A900AA002D282008A700AB01A1012708AC
:1000600067200510280867208510290867200511DA
:100070002A086720851101302106031D2D28013033
:1000800032060319202800302606031D4928A60A37
:100090002B2801302606031D51282708A800A60A90
:1000A0002B2802302606031D5B282808A9002708F4
:1000B000A800A60A2B2803302606031D2D28290890
:1000C000AA002808A9002708A800A60A2B280520AE
:1000D000E2202B0811208507AB0AF0200800A200BF
:1000E000030EA3000B1C922806148614061101307F
:1000F000A00097200130210603198E2806148610CF
:1001000006150230A00097200130210603198E2821
:100110000610861406150330A000972006108610DE
:1001200006110B10230E8300A20E220E0900061AE0
:10013000A428F920061AA428061E9C28F920061EC9
:100140009F280130A10008000330A007861AB328B9
:10015000F920861AB328861EAB28F920861EAE2801
:100160000130A10008000330A007061BC228F920B7
:10017000061BC228061FBA28F920061FBD28013019
:10018000A10008000330A007861BCF28F920861B9A
:10019000CF28861FC928F920861FC928D028080023
:1001A0008618D628A0010130A10008000618DC2816
:1001B0000130B200A10008000619E1280130B200A8
:1001C000A1000800A4000830A500A41FE92886119A
:1001D000EA28861505120516A40DA50BE5280800CA
:1001E0000A30AC001430AD00AD0BF428AC0BF22893
:1001F0000800C830B0003230B100B10BFD28B00BA0
:04020000FB280800CF
:02400E00293F48
:02401000FC3F73
:00000001FF
