:020000040000FA
:020000000528D1
:040002000034003492
:06000A00831603131830F9
:1000100085008601831603139B0183120313860157
:100020008501A701A301A401A501A601E030860076
:1000300023088A100A1496218A100A109320230894
:100040008A100A14A4218A100A109320861186159A
:100050000A30A000FF30A100A10B2C28A00B2B28F8
:10006000D030860024088A100A1496218A100A10BB
:10007000932024088A100A14A4218A100A109320BD
:10008000861186150A30A000FF30A100A10B46287A
:10009000A00B4528B030860025088A100A14962146
:1000A0008A100A10932025088A100A14A4218A10A5
:1000B0000A109320861186150A30A000FF30A10097
:1000C000A10B6028A00B5F287030860026088A10DC
:1000D0000A1496218A100A10932026088A100A14FE
:1000E000A4218A100A109320861186150A30A000D8
:1000F000FF30A100A10B7A28A00B7928A70A0A30AB
:1001000003112706031D1628A7012508A6002408A9
:10011000A5002308A400A30A193003112306031D18
:100120001628A3011628AA000830AB00AA1F9A2897
:1001300006159B28061186108614AA0DAB0B96286F
:100140008207003400340034223400340834083488
:1001500000340034083422340034003400342234B3
:1001600022340834083400340034003400340034BD
:1001700000340034003400340034223400340834B5
:10018000083400340034083422340034003400349D
:10019000223422340834083400340034003400346B
:1001A000003400340034003400340034223400348D
:1001B0000834083400340034083422340034003465
:1001C000003422342234083408340034003400343B
:1001D000003400340034003400340034003422345D
:1001E0000034083408340034003408342234003435
:1001F000003400342234223408340834003400340B
:10020000003400340034003400340034003400344E
:1002100022340034083408340034003408342234E2
:1002200000340034003422342234083408340034DA
:1002300000340034003400340034003482070034C9
:10024000223400340A3422342634083400340A3488
:100250000034223404340034003400348207003483
:10026000373438348F3439343334813408348F346C
:1002700038343734763439343F340034820700342C
:100280000034223422340034003422340034223446
:100290000034083426340034043408340034223462
:1002A0000034820700343E34333437343F3408346A
:1002B0003934383439343934813433343F34763452
:1002C000893439343734003482070034223400341E
:1002D0002234003408342634003404340834003422
:1002E0002234003408340834023408340834223408
:1002F00000340034083408340034820700343934C0
:10030000383439343934813433343F3476348934B1
:100310003934373408348F3489343D348934813466
:10032000373438340834893489340034820700344F
:1003300000340034083422340034013400342634CC
:1003400022340434003400348207003438343E341C
:1003500089342D34083476343F34333439347634A8
:100360003F34003482070034003422340034043433
:10037000003402340034083408342234263426345D
:10038000223411340034820700341E3436343F34B2
:10039000763408343D343E3481348934393433344E
:0803A000333439340934003410
:02400E00293F48
:02401000FC3F73
:00000001FF
