:020000040000FA
:020000000528D1
:040002000034003492
:06000A00831603139B01A5
:1000100083120313073092003F30970000309500A1
:10002000831603133E3092008316031300308500BD
:10003000F0308600831203138601860169200608CA
:10004000F039A000103003112006031D29287A2062
:100050001F28203003112006031D302870201F2880
:10006000403003112006031D372870201F288030E0
:1000700003112006031D3E2875201F28D0300311D0
:100080002006031D45287A201F2803112008A100FF
:10009000DF30A10550302106031D502870201F2895
:1000A00003112008A100DF30A10590302106031DB7
:1000B0005B2875201F28F03003112006031D6228DD
:1000C0007F201F28003003112006031D1F287F20DA
:1000D0001F281F3095003E309200F0308505080043
:1000E00005108514051585150800051485140511DE
:1000F00085150800051085140511851508000F30B9
:04010000850408006A
:02400E00293F48
:02401000FC3F73
:00000001FF
