:020000040000FA
:020000000528D1
:040002000034003492
:06000A00831603131830F9
:1000100085008601831603139B0183120313860157
:100020008501A701A301A401A501A601AA01E03051
:100030008600F03086052308F520A9000F30290539
:1000400086042308F520A9007030A905A90CA90C85
:10005000A90CA90CF8308505290885040A30A000F0
:10006000FF30A100A10B3228A00B3128D030860030
:10007000F03086052408F520A9000F3029058604F4
:100080002408F520A9007030A905A90CA90CA90C19
:10009000A90CF8308505290885040A30A000FF3036
:1000A000A100A10B5128A00B5028B0308600F030E1
:1000B00086052508F520A9000F30290586042508A6
:1000C000F520A9007030A905A90CA90CA90CA90C50
:1000D000F8308505290885040A30A000FF30A1000A
:1000E000A10B7028A00B6F2870308600F0308605B9
:1000F0002608F520A9000F30290586042608F520DA
:10010000A9007030A905A90CA90CA90CA90CF830FC
:100110008505290885040A30A000FF30A100A10B45
:100120008F28A00B8E2805081839A900003003116C
:100130002906031DA5282A100430A3000330A400BB
:100140000230A5000130A600172805081839A900BB
:10015000083003112906031DB7282A100930A3000F
:100160000830A4000730A5000630A60017280508AF
:100170001839A900103003112906031DCF282A10B1
:100180000E30A3000E30A3000E30A3000E30A300EB
:100190000D30A4000C30A5000B30A6001728050870
:1001A000A9001830A905183003112906031D1728C6
:1001B0002A18E028A701A301A401A501A6012A1479
:1001C000A70A0A3003112706031D1728A7012508CF
:1001D000A6002408A5002308A400A30A10300311D8
:1001E0002306031D1728A3011728820700343E3475
:1001F000673477347E3408344F340E344F344E3401
:0C02000008346D347E3430347F34003418
:02400E00293F48
:02401000FC3F73
:00000001FF
