:020000040000FA
:020000001628C0
:080008007A2882073F34063418
:100010005B344F3466346D347D3407347F34673459
:100020000034820701340234043408348601831614
:100030000313FF3096008316031789018801831686
:100040000313F0308600E030850081130B108B170E
:100050008B1583120313A101A601B2010F30850095
:100060000A30A700A800A900AA0038282008A70085
:10007000AB01A10127087220051028087220851005
:100080002908722005112A087220851101302106E5
:10009000031D38280130320603192B2800302606AC
:1000A000031D5428A60A362801302606031D5C28A5
:1000B0002708A800A60A362802302606031D66284F
:1000C0002808A9002708A800A60A36280330260613
:1000D000031D38282908AA002808A9002708A80015
:1000E000A60A36280520ED202B0811208507AB0A2B
:1000F000FB200800A200030EA3000B1C9D28061481
:10010000861406110130A000A22001302106031937
:1001100099280614861006150230A000A22001308E
:100120002106031999280610861406150330A0002D
:10013000A2200610861006110B10230E8300A20EBB
:10014000220E0900061AAF280421061AAF28061E3F
:10015000A7280421061EAA280130A10008000330A8
:10016000A007861ABE280421861ABE28861EB62835
:100170000421861EB9280130A10008000330A00721
:10018000061BCD280421061BCD28061FC5280421E7
:10019000061FC8280130A10008000330A007861BF5
:1001A000DA280421861BDA28861FD4280421861F1A
:1001B000D428DB2808008618E128A0010130A1001E
:1001C00008000618E7280130B200A100080006194F
:1001D000EC280130B200A1000800A4000830A500FE
:1001E000A41FF4288611F528861505120516A40DFE
:1001F000A50BF02808000A30AC001430AD00AD0BA0
:10020000FF28AC0BFD280800C830B0003230B10028
:0A021000B10B0829B00B0629080005
:02400E00F1209F
:02401000FF3F70
:00000001FF
